S013000050726976617465536166652E73726563B7
S11300000C942A000C9447000C9447000C9447006D
S11300100C9447000C9447000C9447000C94470040
S11300200C9447000C9447000C9447000C94470030
S11300300C9447000C9447000C9447000C94470020
S11300400C9447000C9447000C9447000C94470010
S11300500C94470011241FBECFE5D8E0DEBFCDBF0E
S113006011E0A0E6B0E0EAE2FDE002C005900D92E6
S1130070A431B107D9F711E0A4E1B1E001C01D92A8
S1130080A431B107E1F70E9441050C9493060C9446
S11300900000843409F471C0853448F4823499F141
S11300A0833408F04DC0813409F083C00FC0823618
S11300B051F1833620F4813609F07BC007C08336C2
S11300C009F43EC0843609F074C057C0413069F465
S11300D02AB381E090E0AC0102C0440F551F6A9539
S11300E0E2F7BA01622B6ABB08952AB381E090E07B
S11300F0AC0102C0440F551F6A95E2F7BA0160953E
S113010062236ABB0895413069F427B381E090E02B
S1130110AC0102C0440F551F6A95E2F7BA01622B85
S113012067BB089527B381E090E0AC0102C0440F9F
S1130130551F6A95E2F7BA016095622367BB08957B
S1130140413069F424B381E090E0AC0102C0440F73
S1130150551F6A95E2F7BA01622B64BB089524B374
S113016081E090E0AC0102C0440F551F6A95E2F7AC
S1130170BA016095622364BB0895413069F421B3E8
S113018081E090E0AC0102C0440F551F6A95E2F78C
S1130190BA01622B61BB089521B381E090E0AC0108
S11301A002C0440F551F6A95E2F7BA0160956223B5
S11301B061BB0895843409F471C0853448F48234F1
S11301C099F1833408F04DC0813409F083C00FC025
S11301D0823651F1833620F4813609F07BC007C0A2
S11301E0833609F43EC0843609F074C057C04130E8
S11301F069F42BB381E090E0AC0102C0440F551FB9
S11302006A95E2F7BA01622B6BBB08952BB381E0C8
S113021090E0AC0102C0440F551F6A95E2F7BA01A1
S1130220609562236BBB0895413069F428B381E083
S113023090E0AC0102C0440F551F6A95E2F7BA0181
S1130240622B68BB089528B381E090E0AC0102C042
S1130250440F551F6A95E2F7BA016095622368BBA3
S11302600895413069F425B381E090E0AC0102C007
S1130270440F551F6A95E2F7BA01622B65BB0895D6
S113028025B381E090E0AC0102C0440F551F6A958C
S1130290E2F7BA016095622365BB0895413069F4C1
S11302A022B381E090E0AC0102C0440F551F6A956F
S11302B0E2F7BA01622B62BB089522B381E090E0B9
S11302C0AC0102C0440F551F6A95E2F7BA0160956C
S11302D0622362BB0895843409F43DC0853440F43C
S11302E08234F9F0833450F5813409F040C00CC0F5
S11302F08236B9F0833618F48136C9F505C08336E1
S1130300E9F08436A1F527C02BB381E090E0AC017D
S113031002C0440F551F6A95E2F7BA0162276BBB0E
S1130320089528B381E090E0AC0102C0440F551F4A
S11303306A95E2F7BA01622768BB089525B381E0A4
S113034090E0AC0102C0440F551F6A95E2F7BA0170
S1130350622765BB089522B381E090E0AC0102C03E
S1130360440F551F6A95E2F7BA01622762BB0895EC
S1130370843409F44EC0853440F4823431F183343A
S1130380B0F5813409F057C00EC08236F1F08336DF
S113039020F4813609F04FC006C0833641F184361B
S11303A009F049C036C029B381E090E0062E02C0AE
S11303B0880F991F0A94E2F730E08223932302C046
S11303C0959587956A95E2F7089526B381E090E0C4
S11303D0062E02C0880F991F0A94E2F730E08223A8
S11303E0932302C0959587956A95E2F7089523B300
S11303F081E090E0062E02C0880F991F0A94E2F76C
S113040030E08223932302C0959587956A95E2F79D
S1130410089520B381E090E0062E02C0880F991F52
S11304200A94E2F730E08223932302C095958795DE
S11304306A95E2F7089508958434D9F0853438F440
S1130440823499F0833498F48134A1F40CC0823658
S113045061F0833618F4813669F405C0833639F0C7
S1130460843641F406C06ABB089567BB089564BB33
S1130470089561BB08958434D9F0853438F4823406
S113048099F0833498F48134A1F40CC0823661F07D
S1130490833618F4813669F405C0833639F084361E
S11304A041F406C06BBB089568BB089565BB08950D
S11304B062BB0895843409F1853438F48234A9F098
S11304C08334B8F48134E1F40CC0823671F083369D
S11304D018F48136A9F405C0833659F0843681F4C2
S11304E00CC08BB380958BBB089588B3809588BB73
S11304F0089585B3809585BB089582B3809582BBAA
S113050008958434D9F0853438F4823499F08334EE
S113051098F48134A9F40CC0823661F0833618F45F
S1130520813671F405C0833639F0843649F406C047
S113053089B3089586B3089583B3089580B3089565
S113054008956295607F843451F1853438F482349F
S1130550C1F08334E8F4813441F50CC0823689F06B
S1130560833618F4813609F505C0833689F084365C
S1130570E1F415C08BB38F708BBB8BB3682B6BBB53
S1130580089588B38F7088BB88B3682B68BB0895BF
S113059085B38F7085BB85B3682B65BB089582B323
S11305A08F7082BB82B3682B62BB0895843451F18F
S11305B0853438F48234C1F08334E8F4813441F56D
S11305C00CC0823689F0833618F4813609F505C0EB
S11305D0833689F08436E1F415C08BB3807F8BBBFE
S11305E08BB3682B6BBB089588B3807F88BB88B3BB
S11305F0682B68BB089585B3807F85BB85B3682B62
S113060065BB089582B3807F82BB82B3682B62BBD3
S11306100895843409F471C0853448F4823499F11E
S1130620833408F04DC0813409F083C00FC0823692
S113063051F1833620F4813609F07BC007C083363C
S113064009F43EC0843609F074C057C0413069F4DF
S11306502BB381E090E0AC0102C0440F551F6A95B2
S1130660E2F7BA01622B6BBB08952BB381E090E0F3
S1130670AC0102C0440F551F6A95E2F7BA016095B8
S113068062236BBB0895413069F428B381E090E0A4
S1130690AC0102C0440F551F6A95E2F7BA01622B00
S11306A068BB089528B381E090E0AC0102C0440F18
S11306B0551F6A95E2F7BA016095622368BB0895F5
S11306C0413069F425B381E090E0AC0102C0440FED
S11306D0551F6A95E2F7BA01622B65BB089525B3ED
S11306E081E090E0AC0102C0440F551F6A95E2F727
S11306F0BA016095622365BB0895413069F422B361
S113070081E090E0AC0102C0440F551F6A95E2F706
S1130710BA01622B62BB089522B381E090E0AC0180
S113072002C0440F551F6A95E2F7BA01609562232F
S113073062BB08958EBB9FBB6DBBE29AE19AE199BF
S1130740FECF08958EBB9FBBE09A8DB3089583E4DA
S11307506FE00E941C0283E467E041E00E94090309
S113076083E466E041E00E94090383E465E041E03C
S11307700E94090383E464E041E00E9409030895B0
S11307800F931F93CF93DF93CDB7DEB760970FB668
S1130790F894DEBF0FBECDBFDE011196E0E6F0E0B7
S11307A080E101900D928150E1F700E083E46FEF66
S11307B00E94D60283E4602F40E00E94DA0010E039
S11307C0612F6C5F83E40E94B801882361F4E02FF9
S11307D0F0E0EE0FFF1FEE0FFF1FE10FF11DEC0F16
S11307E0FD1F818104C01F5F143051F70BC0609658
S11307F00FB6F894DEBF0FBECDBFDF91CF911F912E
S11308000F9108950F5F043089F68FEFF0CF82E4E3
S113081090E060E070E041E050E00E94DA0083EF95
S113082091E00197F1F700C0000082E490E060E0FD
S113083070E040E050E00E94DA0083EF91E001971D
S1130840F1F700C000000895CF93C82F682F629578
S11308506F7081E490E070E00E94A10282E490E075
S113086062E070E040E050E00E94DA000E94070479
S113087081E490E06C2F70E00E94A10282E490E099
S113088062E070E040E050E00E94DA000E94070459
S113089089EF90E00197F1F700C00000CF9108952F
S11308A081E490E064E070E041E050E00E9449009F
S11308B081E490E065E070E041E050E00E9449008E
S11308C081E490E066E070E041E050E00E9449007D
S11308D081E490E067E070E041E050E00E9449006C
S11308E082E490E060E070E041E050E00E94490062
S11308F082E490E062E070E041E050E00E94490050
S113090082E490E061E070E041E050E00E94490040
S113091082E490E061E070E040E050E00E94DA00A0
S113092082E00E94240483EC99E00197F1F700C06F
S1130930000088E20E94240489EF90E00197F1F717
S113094000C000008EE00E94240489EF90E001972B
S1130950F1F700C0000081E00E94240483EC99E0D8
S11309600197F1F700C0000086E00E94240489EF9B
S113097090E00197F1F700C000000895CF93C82FCD
S1130980682F62956F7081E490E070E00E94A1028C
S113099082E490E062E070E041E050E00E94DA001E
S11309A00E94070481E490E06C2F70E00E94A10291
S11309B082E490E062E070E041E050E00E94DA00FE
S11309C00E940704CF910895CF93DF93EC018881AF
S11309D0882331F021960E94BE0489918823D9F797
S11309E0DF91CF91089581E00E94240483EC99E083
S11309F00197F1F700C000000895813019F4862FA3
S1130A00815806C0823019F4862F815401C080E8D1
S1130A100E94240489EF90E00197F1F700C00000E0
S1130A2008951F93CF93DF930E94F30480E790E02F
S1130A300E94E40482E061E00E94FD04C0E2D0E090
S1130A400E94C003182F8F3FD9F30E94BE0483E293
S1130A5094EF0197F1F700C000006C2F6F5182E012
S1130A600E94FD048AE20E94BE04CE01612F0E940E
S1130A709A032196C432D10519F7DF91CF911F91C2
S1130A8008952F923F924F925F926F927F928F922E
S1130A909F92AF92BF92CF92DF92EF92FF920F9309
S1130AA01F93CF93DF9300D000D000D0CDB7DEB733
S1130AB00E94A7030E9450048DE790E00E94E40482
S1130AC08FE493EC0197F1F700C000000E94F30457
S1130AD080E390E00E94A2038F3F39F40E94110545
S1130AE080E390E060E00E949A030F2EF3E3BF2EB0
S1130AF0F02DAA240F2EF5E84F2EF0E05F2EF02DF6
S1130B00882483943E010894611C711C6D827E824A
S1130B100F2EF6E92F2EF0E03F2EF02D982C80E1D9
S1130B2090E00E94A203882309F4E5C00E94F30424
S1130B30C2010E94E40482E0682D0E94FD04630166
S1130B400D811E81FF240E94C003D8018C938F3F26
S1130B50D1F30E94BE04E3E2F4EF3197F1F700C051
S1130B600000F39482E06F2D0E94FD048AE20E944B
S1130B70BE048FE493EC0197F1F700C000000F5F0F
S1130B801F4F94E0F916F9F60E94F304C1010E9484
S1130B90E404AFE4B3EC1197F1F700C00000EE24D5
S1130BA0FF246894E5F8F60111916F01C7010E94D2
S1130BB0A2031813A92C0894E11CF11CF4E2EF160B
S1130BC0F10489F781E0A81601F50E94F30481EA93
S1130BD090E00E94E40482E0682D0E94FD048B2DC5
S1130BE00E94BE0481EB90E00E94E4048FE39DE048
S1130BF0A3E081509040A040E1F700C00000BA9407
S1130C009FE2B91609F08BCF76C00E94F3048EEBF5
S1130C1090E00E94E404AFE4B3EC1197F1F700C054
S1130C20000082E061E00E94FD048FEC90E00E94ED
S1130C30E4048FE39DE0A3E081509040A040E1F7FD
S1130C4000C000000E94C0038F3FE1F38134A9F586
S1130C500E94F3048AED90E00E94E4048FE39DE097
S1130C60A3E081509040A040E1F700C000000E9442
S1130C7011050E94F30487EE90E00E94E4048FE9DA
S1130C8096E8A1E081509040A040E1F700C0000048
S1130C9082E061E00E94FD0486EF90E00E94E4049B
S1130CA08FE39DE0A3E081509040A040E1F700C0B5
S1130CB0000088E00E94240403C088E00E94240409
S1130CC080E090E026960FB6F894DEBF0FBECDBF4D
S1130CD0DF91CF911F910F91FF90EF90DF90CF9014
S1130CE0BF90AF909F908F907F906F905F904F9048
S1130CF03F902F9008950E94F30486E091E00E94B3
S1130D00E40480E190E060E00E949A038FE996E8B1
S1130D10A1E081509040A040E1F700C0000088E0CD
S10D0D200E942404CDCFF894FFCF05
S1130D2A3738392F343536783132332D41303D2B2B
S1130D3A5345542050415353574F52440057656CFE
S1130D4A636F6D6500456E746572205061737377C5
S1130D5A6F72643A20004C6F6164696E672E2E2E9E
S1130D6A0057524F4E472050415353574F52442134
S1130D7A0020747269616C73206C65667400436F39
S1130D8A72726563742050617373776F726400536F
S1130D9A616665204F70656E2100526573657474CF
S1130DAA696E672E2E2E0050617373776F726420FA
S1130DBA526573657400506C65617365205265737E
S1130DCA746172742E0053414645204C4F434B457F
S1070DDA442021008C
S9030000FC
